:020000040800F2
:10000000005000200D2A0008910400089304000805
:1000100095040008970400089904000800000000F7
:100020000000000000000000000000009B04000829
:100030009D040008000000009F040008A1040008BF
:10004000552A0008552A0008552A0008552A000894
:10005000552A0008552A0008552A0008552A000884
:10006000552A0008552A0008552A0008552A000874
:10007000552A0008552A0008552A0008552A000864
:10008000552A0008552A0008552A0008552A000854
:10009000552A0008552A0008552A0008552A000844
:1000A000552A0008552A0008552A0008552A000834
:1000B000552A0008552A0008552A0008552A000824
:1000C000552A0008552A0008552A0008552A000814
:1000D000552A0008A9040008552A0008552A0008D6
:1000E000552A0008552A0008552A0008000000007B
:1000F0000000000000000000000000000000000000
:0C01000000000000000000005FF808F1A3
:10010C0010B5054C237833B9044B13B10448AFF345
:10011C0000800123237010BD0C00002000000000A3
:10012C00B02A000808B5034B1BB103490348AFF3D1
:10013C00008008BD0000000010000020B02A00085C
:10014C002DE9F04188B0002404940594069407949A
:10015C00284B9A6942F010029A619A6902F01002D7
:10016C000092009A9A6942F020029A619A6902F010
:10017C0020020192019A9A6942F004029A619A69EA
:10018C0002F004020292029A9A6942F008029A6101
:10019C009B6903F008030393039BDFF864802246FA
:1001AC001321404600F018FF134F22460121384618
:1001BC0000F012FF132304930125059506940226E3
:1001CC00079604A9404600F01BFE0495059506947D
:1001DC00079604A9384600F013FE4FF4005304931D
:1001EC0005950694079604A9044800F009FE08B08A
:1001FC00BDE8F08100100240000C014000100140ED
:10020C000008014008B52839232916D8DFE801F089
:10021C001217151515151515151515151515151583
:10022C001515151515151515151515151515151572
:10023C0015151B20012000F023FA012008BD1046E3
:10024C0000F01EFAF9E70221044800F0C5FEF4E7BD
:10025C000121024800F0C0FEEFE700BF000801409A
:10026C0008B5184614390C2908D8DFE801F017072F
:10027C0007091717070707070707110000200EE0EB
:10028C004FF47A730146064801F065F8012006E048
:10029C000221044800F0A0FE012000E0012008BD6E
:1002AC00680100200008014072B6FEE708B50D4851
:1002BC000D4B03604FF48273436000238360C36073
:1002CC00036143614FF400728261C3610362436254
:1002DC0083620A23C36200F0E3FF00B908BDFFF795
:1002EC00E3FF00BF680100200030014008B50A4858
:1002FC000A4B03604FF4E133436000238360C36017
:10030C0003610C2242618361C36101F09DF900B964
:10031C0008BDFFF7C9FF00BF0C01002000380140E9
:10032C0000B595B000230C930F931093059306938F
:10033C000793089309930193029303930493052362
:10034C000A934FF480330B9301220D920E920222EA
:10035C00119212934FF4E01313930AA800F0BAF918
:10036C00C8B90F23059302210691002307934FF47C
:10037C0080620892099305A800F0DEFB68B901239E
:10038C0001934FF48073029301A800F0AFFC30B9D5
:10039C0015B05DF804FBFFF787FFFFF785FFFFF74C
:1003AC0083FF000000B583B000F046F9FFF7B8FFFB
:1003BC00FFF7C6FEFFF77AFFFFF798FF0022012137
:1003CC00264800F009FE01224FF40051244800F0A9
:1003DC0003FE244C244B254A2549204601F066FC9B
:1003EC00204602F0CAFA0021204602F0CDFA00F0B5
:1003FC0041F9204B186020E01A4801F061FB194CC0
:10040C001D49204601F048FF1C4B0F2200212046BD
:10041C0001F004FF1A4B1E220021204601F0FEFEC3
:10042C000F230093082328224021204601F013FCBF
:10043C00204601F052FB0028E1D100F01BF90D4BD6
:10044C001B68C01A6328D7D94FF40051044800F038
:10045C00C9FD00F00FF9074B1860CDE7000C014007
:10046C000010014028000020110200086D02000855
:10047C00F0440008080100200C2B0008C82A0008D2
:10048C00D82A0008FEE7FEE7FEE7FEE7FEE7704726
:10049C007047704708B500F0E1F808BD08B5024890
:1004AC0001F08EF908BD00BF0C01002082B00E4B8C
:1004BC009A6942F001029A619A6902F00102009273
:1004CC00009ADA6942F08052DA61DB6903F08053FA
:1004DC000193019B054A536823F0E06343F00073DA
:1004EC00536002B0704700BF001002400000014092
:1004FC0010B586B00023029303930493059302680E
:10050C00164B9A4201D006B010BD03F560439A69B0
:10051C0042F480529A619A6902F480520092009AD5
:10052C009A6942F004029A619B6903F004030193F7
:10053C00019BA02302930223039303230593084CEE
:10054C0002A9204600F05CFC402302930023039395
:10055C00049302A9204600F053FCD4E7003001407C
:10056C000008014030B587B0002302930393049335
:10057C00059302681B4B9A4201D007B030BD03F5BE
:10058C0058439A6942F480429A619A6902F4804213
:10059C000092009A9A6942F004029A619B6903F0F6
:1005AC0004030193019B4FF4007302930223039302
:1005BC00032305930C4D02A9284600F021FC4FF4AF
:1005CC008063029300240394049402A9284600F04B
:1005DC0017FC22462146252000F08EFD252000F038
:1005EC00BFFDCAE7003801400008014010B50446C1
:1005FC000E4B18784FF47A73B3FBF0F30C4A106877
:10060C00B0FBF3F000F0BAFD68B90F2C01D9012052
:10061C000AE0002221464FF0FF3000F06DFD054B43
:10062C001C60002000E0012010BD00BF0000002075
:10063C00080000200400002008B5074A136843F0A6
:10064C0010031360032000F045FD0F20FFF7CEFFD1
:10065C00FFF72CFF002008BD00200240034A116860
:10066C00034B1B780B441360704700BFC001002084
:10067C0000000020014B1868704700BFC00100202B
:10068C0038B50446FFF7F6FF0546B4F1FF3F02D03C
:10069C00044B1B781C44FFF7EDFF401BA042FAD320
:1006AC0038BD00BF0000002082B0084B1B68084A10
:1006BC00A2FB03235B0A00FB03F0019000BF019B2C
:1006CC005A1E0192002BF9D102B07047080000208D
:1006DC00D34D6210002800F0F58170B582B004464D
:1006EC00036813F0010F2CD0AB4B5B6803F00C03C9
:1006FC00042B1DD0A84B5B6803F00C03082B12D005
:10070C006368B3F5803F41D0002B55D103F1804392
:10071C0003F504331A6822F480321A601A6822F442
:10072C0080221A6037E09C4B5B6813F4803FE7D063
:10073C00994B1B6813F4003F03D06368002B00F047
:10074C00C381236813F0020F76D0934B5B6813F0D0
:10075C000C0F5FD0904B5B6803F00C03082B54D04C
:10076C002369002B00F08A808C4B01221A60FFF762
:10077C0081FF0546884B1B6813F0020F75D1FFF7FC
:10078C0079FF401B0228F5D90320A0E1824A1368A7
:10079C0043F480331360636843B3FFF76BFF054684
:1007AC007D4B1B6813F4003FCBD1FFF763FF401B5D
:1007BC006428F5D903208AE1B3F5A02F09D0764B34
:1007CC001A6822F480321A601A6822F480221A60A5
:1007DC00E1E703F18043A3F53C331A6842F480222D
:1007EC001A601A6842F480321A60D4E7FFF742FFAD
:1007FC000546694B1B6813F4003FA2D0FFF73AFF84
:10080C00401B6428F5D9032061E1634B5B6813F44A
:10081C00803FA5D1604B1B6813F0020F04D02369F5
:10082C00012B01D0012052E15B4A136823F0F8033D
:10083C00616943EAC1031360236813F0080F32D0D7
:10084C00A369002B5BD0564B01221A60FFF712FFF5
:10085C000546514B5B6A13F0020F21D1FFF70AFFDB
:10086C00401B0228F5D9032031E14B4A136823F0D1
:10087C00F803616943EAC1031360DDE7474B0022CB
:10088C001A60FFF7F7FE0546434B1B6813F0020F87
:10089C00D2D0FFF7EFFE401B0228F5D9032016E15A
:1008AC000120FFF701FF236813F0040F00F098807C
:1008BC00394BDB6913F0805F33D1374BDA6942F087
:1008CC008052DA61DB6903F080530193019B0125AF
:1008DC00344B1B6813F4807F25D0E368012B36D092
:1008EC00002B4CD103F1804303F504331A6A22F038
:1008FC0001021A621A6A22F004021A622CE0284BD6
:10090C0000221A60FFF7B6FE0546234B5B6A13F014
:10091C00020FC8D0FFF7AEFE401B0228F5D903200A
:10092C00D5E00025D4E71F4A136843F480731360A5
:10093C00FFF7A0FE06461B4B1B6813F4807FCCD13F
:10094C00FFF798FE801B6428F5D90320BFE0124AFC
:10095C00136A43F001031362E3687BB3FFF78AFE6B
:10096C0006460D4B1B6A13F0020F38D1FFF782FEBF
:10097C00801B41F288339842F3D90320A7E0052B62
:10098C0012D0054B1A6A22F001021A621A6A22F07E
:10099C0004021A62E0E700BF00100240000042426D
:1009AC0080044242007000404C4B1A6A42F0040230
:1009BC001A621A6A42F001021A62CDE7FFF75AFE78
:1009CC000646464B1B6A13F0020F08D0FFF752FE87
:1009DC00801B41F288339842F3D9032077E0E5B9C4
:1009EC00E369002B72D03D4A526802F00C02082ACF
:1009FC0056D0022B17D03A4B00221A60FFF73AFE62
:100A0C000446364B1B6813F0007F47D0FFF732FECD
:100A1C00001B0228F5D9032059E0304AD36923F092
:100A2C008053D361DCE72E4B00221A60FFF722FEC5
:100A3C0005462A4B1B6813F0007F06D0FFF71AFE01
:100A4C00401B0228F5D9032041E0236AB3F5803F0F
:100A5C001AD022494B6823F47413226A606A024349
:100A6C0013434B601E4B01221A60FFF703FE044632
:100A7C001A4B1B6813F0007F0ED1FFF7FBFD001B18
:100A8C000228F5D9032022E0144A536823F40033DA
:100A9C00A1680B435360DCE7002018E0002016E04F
:100AAC00012B16D00D4B5B6803F48031226A914206
:100ABC0001D001200BE003F47013626A93420AD058
:100ACC00012004E001207047012000E0002002B06A
:100ADC0070BD0120FBE70020F9E700BF00100240C9
:100AEC00600042420F4B5B6803F00C02082A16D1DF
:100AFC00C3F383420C498A5C13F4803F03D10B4847
:100B0C0000FB02F07047074B5B68C3F34043084996
:100B1C00CB5C084800FB02F0B0FBF3F070470548D3
:100B2C00704700BF00100240E02A000800093D0099
:100B3C00F02A000800127A00002800F0A38070B59B
:100B4C000446524B1B6803F007038B420CD24F4AEE
:100B5C00136823F007030B431360136803F00703B8
:100B6C008B4201D0012070BD236813F0020F17D007
:100B7C0013F0040F04D0464A536843F4E063536007
:100B8C00236813F0080F04D0414A536843F46053B0
:100B9C0053603F4A536823F0F003A068034353604B
:100BAC000D46236813F0010F31D06368012B20D060
:100BBC00022B25D0364A126812F0020F64D0344949
:100BCC004A6822F0030213434B60FFF753FD0646BD
:100BDC002F4B5B6803F00C036268B3EB820F16D0EB
:100BEC00FFF748FD801B41F288339842F0D903206F
:100BFC00B9E7274A126812F4003FE0D10120B2E7AE
:100C0C00234A126812F0007FD9D10120ABE71F4BA9
:100C1C001B6803F00703AB420CD91C4A136823F082
:100C2C0007032B431360136803F00703AB4201D097
:100C3C00012098E7236813F0040F06D0144A536878
:100C4C0023F4E063E1680B435360236813F0080F4F
:100C5C0007D00F4A536823F46053216943EAC10358
:100C6C005360FFF73FFF0A4B5B68C3F30313094A5A
:100C7C00D35CD840084B1860084B1868FFF7B6FCDB
:100C8C00002070E70120704701206CE70020024033
:100C9C0000100240F42A0008080000200400002084
:100CAC00014B1868704700BF0800002008B5FFF71B
:100CBC00F7FF044B5B68C3F30223034AD35CD840B1
:100CCC0008BD00BF00100240042B000808B5FFF758
:100CDC00E7FF044B5B68C3F3C223034AD35CD840E1
:100CEC0008BD00BF00100240042B000870B582B094
:100CFC000446036813F0010F34D03E4BDB6913F04C
:100D0C00805F48D13B4BDA6942F08052DA61DB6993
:100D1C0003F080530193019B0125374B1B6813F49F
:100D2C00807F3AD0334B1B6A13F4407311D0626846
:100D3C0002F440729A420CD02E4A136A23F440708B
:100D4C002E4901260E6000260E60106213F0010F72
:100D5C0037D1284A136A23F4407361680B4313623A
:100D6C00002D3FD1236813F0020F06D0214A53689F
:100D7C0023F44043A1680B435360236813F0100F16
:100D8C0035D01C4A536823F48003E1680B4353604D
:100D9C00002002B070BD0025BFE7174A136843F46A
:100DAC0080731360FFF766FC0646134B1B6813F445
:100DBC00807FB7D1FFF75EFC801B6428F5D9032038
:100DCC00E7E7FFF757FC06460A4B1B6A13F0020FC6
:100DDC00BFD1FFF74FFC801B41F288339842F3D907
:100DEC000320D6E7D36923F08053D361BAE7002000
:100DFC00CFE700BF001002400070004040044242A8
:100E0C00F0B482B000263246A2E0002D5AD0012D5B
:100E1C0000D1CE68FF2B69D88446FF2B69D895008A
:100E2C00DCF800400F27AF4024EA070406FA05F56A
:100E3C002C43CCF800404C6814F0805F00F08780A5
:100E4C005F4CA56945F00105A561A46904F0010496
:100E5C000194019C9508AF1C5A4C54F8274002F0A1
:100E6C000307BF004FF00F0C0CFA07FC24EA0C0C24
:100E7C00554CA04243D004F58064A04200F0818020
:100E8C0004F58064A0427ED004F58064A04234D086
:100E9C00042435E04D4FBD4214D00BD94C4FBD420C
:100EAC0010D007F58037BD420CD0A7F58017BD4296
:100EBC00B0D107E0A7F58017BD4203D007F5803706
:100ECC00BD42A7D18D687DB1012D08D044610826A3
:100EDC00A0E7CE6808369DE7CE680C369AE7046129
:100EEC00082697E7002695E7042693E700F1040C03
:100EFC0093E7A2F10805AD0092E7032400E000247B
:100F0C00BC4044EA0C0402352E4F47F825404C688F
:100F1C0014F4801F39D02F4DAC681C43AC604C6866
:100F2C0014F4001F37D02B4DEC681C43EC604C685C
:100F3C0014F4003F35D0274D6C681C436C604C6832
:100F4C0014F4803F33D0234D2C6823432B600132A3
:100F5C000B6833FA02F430D00124944023409C42B5
:100F6C00F5D14D68122DB7D094D8022DB1D07FF6A3
:100F7C004CAF032DB6D0112D7FF44CAFCE68043698
:100F8C0048E70124BCE70224BAE7124DAC6824EA16
:100F9C000304AC60C3E70F4DEC6824EA0304EC6077
:100FAC00C5E70C4D6C6824EA03046C60C7E7094D77
:100FBC002C6824EA03032B60C9E702B0F0BC70472D
:100FCC000010024000000140000801400000211008
:100FDC00000031100004014012B90904016170478E
:100FEC0001617047C36801EA030221EA030141EA87
:100FFC0002410161704790F82130DBB2022B06D020
:10100C0004238363002380F820300120704702689A
:10101C00136823F00E0313600268136823F00103B6
:10102C001360036CC16B012202FA03F34B6080F86E
:10103C002120002380F820301846704708B590F81E
:10104C002130DBB2022B03D004238363012008BDC3
:10105C000268136823F00E0313600268136823F010
:10106C00010313600368194A934214D0143293425B
:10107C001FD0143293421ED0143293421ED014321D
:10108C0093421ED01432934202D04FF0807203E090
:10109C004FF4801200E001220D4B5A60012380F8BE
:1010AC002130002380F82030436B6BB1984700202F
:1010BC00CDE71022F0E74FF48072EDE74FF4805249
:1010CC00EAE74FF48032E7E70020C0E7080002406F
:1010DC0000000240074AD36823F4E0631B041B0C96
:1010EC00000200F4E060184340F0BF6040F40030B0
:1010FC00D060704700ED00E030B4174BDB68C3F3F1
:10110C000223C3F10704042C28BF04241D1D062D43
:10111C0018D9033B4FF0FF3505FA04F421EA04011A
:10112C00994005FA03F322EA0303194300280BDB69
:10113C000901C9B200F1604000F5614080F800136C
:10114C0030BC70470023E5E700F00F000901C9B27D
:10115C00024B1954F4E700BF00ED00E014ED00E081
:10116C00002807DB00F01F02400901239340024ACC
:10117C0042F82030704700BF00E100E00138B0F1C8
:10118C00807F0AD2064B5860064AF02182F8231061
:10119C000020986007221A6070470120704700BF3A
:1011AC0010E000E000ED00E02DE9F04383B00446D0
:1011BC000F4616461D46FFF75DFA0A9B181A00EB00
:1011CC000508FFF757FA81462A4B1B68C3F3CB334C
:1011DC0008FB03F3019323689B6837EA03030CBFF6
:1011EC0001230023B34240D0B5F1FF3FF3D0FFF70A
:1011FC0041FAA0EB090040450AD2B8F1000F07D024
:10120C00019B0BB94FF00008019B013B0193E2E7F6
:10121C002268536823F0E00353606368B3F5827F60
:10122C000BD0A36AB3F5005F14D0012384F85130BE
:10123C00002384F85030032018E0A368B3F5004F66
:10124C0002D0B3F5806FECD12268136823F0400311
:10125C001360E6E72268136823F4005313602268D6
:10126C00136843F400531360DFE7002003B0BDE8BC
:10127C00F08300BF0800002010B582B00446009235
:10128C000B4600228021FFF78FFF034610B918464A
:10129C0002B010BD636D43F0200363650323F6E7D2
:1012AC00002856D010B50446436A33B94368B3F5E9
:1012BC00827F05D00023C36102E0002303614361F8
:1012CC000023A36294F85130002B3CD0022384F805
:1012DC0051302268136823F040031360636803F4F1
:1012EC008273A26802F404421343E26802F40062BF
:1012FC001343226902F002021343626902F00102F5
:10130C001343A26902F400721343E26902F038023B
:10131C001343226A02F080021343A26A02F40052C1
:10132C00216813430B60638B226803F00403536042
:10133C002268D36923F40063D36100206065012324
:10134C0084F8513010BD84F850302046FFF7D0F8A7
:10135C00BCE7012070472DE9F04182B090F8504075
:10136C00012C00F0C8801D46174688460446012310
:10137C0080F85030FFF77EF9064694F85130DBB216
:10138C00012B06D00220002384F8503002B0BDE8B7
:10139C00F081B8F1000F00F0A880002F00F0A780BA
:1013AC00032384F8513000236365C4F83080A7868A
:1013BC00E786A363A387E38763642364A368B3F519
:1013CC00004F1CD023681A6812F0400F03D11A6822
:1013DC0042F040021A60E368B3F5006F1AD06368FC
:1013EC000BB1012F51D1226B236812781A73236B26
:1013FC0001332363E38E013B9BB2E38645E0226815
:10140C00136823F0400313602268136843F480438D
:10141C001360D7E763680BB1012F14D1226B2368DB
:10142C001288DA60236B02332363E38E013B9BB299
:10143C00E38608E0FFF71EF9801BA84202D3B5F142
:10144C00FF3F14D19DB1E38E9BB2002B35D02368A6
:10145C009A6812F0020FEDD0226B1288DA60236BBF
:10146C0002332363E38E013B9BB2E386EBE701235C
:10147C0084F85130032086E7FFF7FCF8801BA84264
:10148C0002D3B5F1FF3F13D195B1E38E9BB2A3B15B
:10149C0023689A6812F0020FEED0226B12781A733E
:1014AC00236B01332363E38E013B9BB2E386ECE7B2
:1014BC00012384F85130032065E732462946204643
:1014CC00FFF7DAFE08B120236365A36833B90193F3
:1014DC002368DA6801929B680193019B636D43B9A1
:1014EC00012384F8513000204DE701204BE7012007
:1014FC0049E7012047E7022048E7026802F10C03A4
:10150C0053E8003F23F490730C3242E80031002979
:10151C00F3D1026802F1140353E8003F23F00103F6
:10152C00143242E800310029F3D1036B012B05D0B2
:10153C00202380F84230002303637047026802F1D5
:10154C000C0353E8003F23F010030C3242E8003147
:10155C000029F3D1ECE790F84130DBB2212B27D1F5
:10156C008368B3F5805F16D0036A5A1C02621A783E
:10157C0003685A60C38C013B9BB2C384D3B9026825
:10158C00D36823F08003D3600268D36843F0400330
:10159C00D360002070470369002BE5D1036A1B88D8
:1015AC000268C3F308035360036A02330362E1E782
:1015BC00022070470020704738B504460268136952
:1015CC0023F44053C1680B431361836802691343CE
:1015DC0042691A430168CB6823F4B05323F00C031F
:1015EC001343CB600268536923F4407381690B4346
:1015FC0053610268124B9A421FD0FFF757FB00EB66
:10160C00800000EB800063689B00B0FBF3F00D4D95
:10161C00A5FB00325109642202FB11021301323383
:10162C00A5FB03235B0903F0F00202EB011203F0AC
:10163C000F03216813448B6038BDFFF747FBDEE7CF
:10164C00003801401F85EB5160B310B5044690F88B
:10165C00413013B3242384F841302268D36823F437
:10166C000053D3602046FFF7A7FF2268136923F4C9
:10167C00904313612268536923F02A035361226853
:10168C00D36843F40053D36000206064202384F8B3
:10169C00413084F84230606310BD80F84030FEF772
:1016AC0061FFD7E701207047704708B50168CB6828
:1016BC0023F04003CB60202380F84130FFF7F4FF88
:1016CC00002008BD7047704708B5406A0023C385E9
:1016DC00C384FFF7F8FF08BD704790F84230DBB2C7
:1016EC00222B69D18368B3F5805F4ED0826AB3F543
:1016FC00805F04D0002B55D10369002B52D10368B5
:10170C005B681370836A01338362C38D013B9BB2A8
:10171C00C385002B52D100B583B00268D36823F087
:10172C002003D3600268D36823F48073D36002680B
:10173C00536923F001035361202380F842300023C6
:10174C004363036B012B33D100230363026802F163
:10175C000C0353E8003F23F010030C3242E8003135
:10176C000029F3D103681A6812F0100F06D000227A
:10177C0001921A6801925B680193019B818DFFF7BE
:10178C00ABFF002003B05DF804FB0269002AADD169
:10179C00826A03685B68C3F308031380836A0233AD
:1017AC008362B2E703685B6803F07F031370A9E7F9
:1017BC00FFF788FF0020E5E7022070470020704704
:1017CC0030B583B0044602681368D068516913F0D1
:1017DC000F0505D113F0200F02D010F0200F5ED1B1
:1017EC00002D72D011F0010102D110F4907F6CD059
:1017FC0013F0010F06D010F4807F03D0626C42F01E
:10180C000102626413F0040F04D019B1626C42F04F
:10181C000202626413F0020F04D019B1626C42F040
:10182C000402626413F0080F07D010F0200F00D1EF
:10183C0019B1626C42F008026264626C002A55D0E5
:10184C0013F0200F02D010F0200F2CD123685B690D
:10185C0003F04003626C12F0080F00D17BB32046FA
:10186C00FFF74BFE23685B6913F0400F23D022680F
:10187C0002F1140353E8003F23F04003143242E812
:10188C0000310029F3D1E36B8BB16A4A5A63E06BE8
:10189C00FFF7D4FB50B3E06B436B984726E0204630
:1018AC00FFF71BFF22E02046FFF717FFCEE720468D
:1018BC00FFF709FF1AE02046FFF705FF16E0204668
:1018CC00FFF701FF0023636410E0216B01290FD0A7
:1018DC0013F0800F03D010F0800F40F0A28013F0B3
:1018EC00400F03D010F0400F40F09F8003B030BD8C
:1018FC0013F0100FECD010F0100FE9D0002301936F
:10190C001368019353680193019B536913F0400FC3
:10191C004ED0E26B13685B689BB2002BE6D0A18DB6
:10192C009942E3D9E3859369202B37D0226802F1E1
:10193C000C0353E8003F23F480730C3242E800316F
:10194C000029F3D1226802F1140353E8003F23F07D
:10195C000103143242E800310029F3D1226802F16C
:10196C00140353E8003F23F04003143242E80031E3
:10197C000029F3D1202384F842300023236322680A
:10198C0002F10C0353E8003F23F010030C3242E841
:10199C0000310029F3D1E06BFFF72DFB02236363C9
:1019AC00A18DE38DC91A89B22046FFF795FE9DE7FC
:1019BC00A18DE38DC91A89B2E38D9BB2002B95D012
:1019CC00002993D0226802F10C0353E8003F23F462
:1019DC0090730C3242E800300028F3D1226802F1F7
:1019EC00140353E8003F23F00103143242E80030A3
:1019FC000028F3D1202384F842300023236322688B
:101A0C0002F10C0353E8003F23F010030C3242E8C0
:101A1C0000300028F3D1022363632046FFF75CFEFD
:101A2C0064E72046FFF797FD60E72046FFF73DFE91
:101A3C005CE700BFD5160008704710B582B003688C
:101A4C001B7C846B03FB01F1C90089B2214400911A
:101A5C00002100F079FF02B010BD2DE9F0410646DF
:101A6C0090F83C7090F83D50036893F81180002476
:101A7C002A4621463046FFF7E0FF0134E4B2013537
:101A8C00EDB2A74201D9A845F2D8BDE8F08108B55E
:101A9C0003681A7C90F83C3002FB03F2D200002160
:101AAC00806B00F0F7FF08BD10B5044680F83D10C0
:101ABC00436B1B689847636B5B682046984710BD67
:101ACC0010B5044690F8873023B900212046FFF763
:101ADC00EBFF10BDFFF7DBFFF7E738B50546FFF767
:101AEC00BCFF95F83D3095F83C401C44E4B22B68A3
:101AFC005B7CA34208D995F8873053B92146284618
:101B0C00FFF7D2FF012038BD284600F044FF00202B
:101B1C00F9E72846FFF7BBFFF0E72DE9F843074646
:101B2C000E4690461D469DF820909DF8244014F0DA
:101B3C00010F0AD114F0020F18D114F0080F27D19D
:101B4C0014F0040F36D1BDE8F883A9EB0202591842
:101B5C00D2B2C9B200F040FCA9EB060205EB0801B9
:101B6C00D2B2C9B2384600F037FCE3E7A9EB080261
:101B7C00A91BD2B2C9B2384600F02EFCA9EB060262
:101B8C00A5EB0801D2B2C9B2384600F025FCD4E767
:101B9C0009EB0802A919D2B2C9B2384600F01CFCF4
:101BAC0006EB090205EB0801D2B2C9B2384600F0C7
:101BBC0013FCC5E709EB0802A91BD2B2C9B238461F
:101BCC0000F00AFC06EB0902A5EB0801D2B2C9B27F
:101BDC00384600F001FCB6E72DE9F04F85B00390D4
:101BEC00894692461F469DF838B0C3F101084FFA5A
:101BFC0088F8C3EBC3135D006DB2CDF804B000924E
:101C0C000B463A460021FFF788FF0026012411E01D
:101C1C000136F6B20234E3B25CB298444FFA88F85B
:101C2C00CDF804B0CDF800A04B463A4631460398A7
:101C3C00FFF773FFBE420BD2B8F1000FE8DB013F98
:101C4C00FFB20235EBB25DB298444FFA88F8DFE789
:101C5C0005B0BDE8F08F2DE9F04182B080460E460C
:101C6C0017461D46CB18DBB2AC18E4B20133521B3D
:101C7C00491B0134E4B20094DBB2D2B2C9B200F019
:101C8C00DCFB10B902B0BDE8F0819DF82030009368
:101C9C002B463A4631464046FFF79EFFF2E70000DE
:101CAC000123037000487047B000002030B585B0A8
:101CBC0004460D4600931346084A094900F090FE6D
:101CCC000DF10F00FFF7ECFF9DF80F200095054B71
:101CDC000146204600F0C3FC05B030BD9D2700082E
:101CEC00F927000879240008405C70474218435CCF
:101CFC00507800EB032080B27047012B08D023B141
:101D0C00022B08D0401AC0B270471044C0B27047C2
:101D1C000844C0B27047801AC0B27047012B08D07B
:101D2C0023B1022B08D01044C0B270470844C0B293
:101D3C007047801AC0B27047401AC0B2704700207A
:101D4C00704738B504460D4600212846FFF7CCFFF6
:101D5C00207001212846FFF7C7FF6070022128463A
:101D6C00FFF7C2FFA07003212846FFF7BDFFE0700C
:101D7C0004212846FFF7B8FF207105212846FFF7FC
:101D8C00B3FF607106212846FFF7AEFFA071072153
:101D9C002846FFF7A9FFE07108212846FFF7A4FFAA
:101DAC00207209212846FFF79FFF60720A212846FE
:101DBC00FFF79AFFA0720B212846FFF795FFE07200
:101DCC000C212846FFF790FF20730D212846FFF7C2
:101DDC008BFF60730E212846FFF786FFA0730F213F
:101DEC002846FFF781FFE07310212846FFF77CFFA0
:101DFC00207411212846FFF779FF608213212846B1
:101E0C00FFF774FFA08215212846FFF76FFFE082D1
:101E1C0038BD70B4847A0668327842FA04F5EAB2B6
:101E2C006318DBB2072B0AD9C4F10804E4B2721CA4
:101E3C0002607278A2402A43D2B2083BDBB24FF068
:101E4C00FF3404FA01F1837222EA010070BC70477E
:101E5C0038B5044600F158058165002380F86230DE
:101E6C0090F86C102846FFF7D4FF84F8600094F8C3
:101E7C006D102846FFF7CDFF84F8610094F886308A
:101E8C0084F86430B3FA83F35B0984F8653038BDA9
:101E9C0010B50C46FFF7BDFF013CE4B20123A34093
:101EAC00C01A40B210BD2DE9F04F87B006460C4663
:101EBC00059290F95E305FFA83FA90F95F805FFAD1
:101ECC0088F816E003941DE096F8643086F88630A6
:101EDC000097039B02460499304600F019FAAC4275
:101EEC0039D3641BE4B208F101085FFA88F84FF0AB
:101EFC00000A96F96050EDB2A5EB0A05EDB2AC42C2
:101F0C00E0D3039596F85D904FFA8AF14FFA88FB6F
:101F1C0096F866703B465A46029196F85C00FFF7BD
:101F2C00FDFE04903B465A4602994846FFF7E5FEF3
:101F3C00059B002BC8D196F86330002BCFD196F8B7
:101F4C00653086F886300097039B0246049930462C
:101F5C0000F0DEF9C3E7544486F85E4086F85FB0C3
:101F6C0007B0BDE8F08F2DE9F04F85B0044600F1C5
:101F7C005805FFF76DFF94F9618094F86E102846B0
:101F8C00FFF786FF834694F86F102846FFF780FF13
:101F9C00064694F870102846FFF77AFF029094F9E1
:101FAC006070002F58DD5FFA88F94E44F6B2764225
:101FBC0076B294F866A053463246CDF80CB059462A
:101FCC0094F85C00FFF7AAFE834684F85C00534645
:101FDC003246039994F85D00FFF78FFE024684F8B1
:101FEC005D00BAF1030F65D8DFE80AF0023A4759F1
:101FFC00FBB25B44DBB24844C0B200905946204669
:10200C0000F01BFA40B3002384F85E3084F85F3094
:10201C0094F86A102846FFF7FCFE074694F86B10FC
:10202C002846FFF7F6FE0646002239462046FFF703
:10203C003AFF012231462046FFF735FF01212846A1
:10204C00FFF7E7FE0028EFD194F95F304345DFDB63
:10205C0094F8643084F88630029805B0BDE8F08FAF
:10206C00ABEB0901C9B201310BF10103DBB2F8B2E0
:10207C001044C0B25FFA81FBBFE7F9B2ABEB0101D0
:10208C00C9B201310BF10103DBB2A0EB0906F6B2C8
:10209C0001360132D0B2F2B25FFA81FBADE709EB47
:1020AC000B03DBB2F9B2411AC9B201310132D0B221
:1020BC00CAB2A2E75B46A0E770B5046D1734FF29DE
:1020CC0013D8602909D9B0F87C301C4463784BB321
:1020DC0022788A4207D01C44F8E74029F6D9B0F898
:1020EC007A301C44F2E7A01C1DE00E46B0F87E00CE
:1020FC000444254600212846FFF7F8FD044402213C
:10210C002846FFF7F3FD04358642F3D8227863782E
:10211C0053EA022308D09E4202D0A3781C44F5E770
:10212C00E01C00E0002070BD0020FCE710B5044668
:10213C0080F85C1080F85D201946FFF7BDFF28B1D0
:10214C0001462046FFF70FFFC0B210BD0020FCE790
:10215C00F8B504460D4616461F4690F86630032B1C
:10216C0007D8DFE803F0020D1217436D98470644B9
:10217C00F6B23B46324629462046FFF7D7FFF8BD5C
:10218C00436D98472D1AEDB2F3E7436D9847361A15
:10219C00F6B2EEE7436D98470544EDB2E9E700006F
:1021AC002DE9F04104460F4616461D4600F082FA12
:1021BC004FF0000804E00744FFB280445FFA88F84F
:1021CC0063682978204698474FF6FF73984222D0CF
:1021DC0001354FF6FE739842F2D00346324639462B
:1021EC002046FFF7B5FF94F86630032BE5D801A223
:1021FC0052F823F0C321000811220008172200080E
:10220C001D2200080644F6B2D7E73F1AFFB2D4E706
:10221C00361AF6B2D1E74046BDE8F08110B5024C53
:10222C004460FFF7BDFF10BDAB260008036D63B320
:10223C0090F9752080F8822090F9763080F8833000
:10224C0090F8811009B3012912D030B490F97210B2
:10225C0090F974400D19AA4204DAC9B2E2B21144E1
:10226C0080F88210A34201DD80F8834030BC7047B7
:10227C0090F977108A4201DA80F8821090F9782070
:10228C00934202DD80F8832070477047014B436511
:10229C00704700BF4B1D0008036D8B4209D010B571
:1022AC00044601656830FFF74CFD2046FFF7BEFF82
:1022BC0010BD704730B405780C782C44E4B2A542BC
:1022CC0003D99D4210D25C1EE4B29D420ED29442C0
:1022DC000FD9954200D32A469C4200D8234602705F
:1022EC009B1A0B70012002E01546EEE7002030BC73
:1022FC0070470020FBE730B583B090F84040121BCC
:10230C00046B9DF818500095D2B2A04703B030BDB5
:10231C0070B584B09DF820508DF80F108DF80E20FC
:10232C008DF80D3090F88030B3B19DF80D309BB125
:10233C00012B03D9022D11D0032D16D0044615F014
:10234C00010532D190F847209DF80E309A4203D8FF
:10235C0090F84820934210D304B070BDCAB2D31A7F
:10236C00DBB201338DF80F30E8E79DF80E20D31A5D
:10237C00DBB201338DF80E30E0E790F8463090F880
:10238C0045200DF10D010DF10F00FFF793FF002813
:10239C00E2D0636B9E689DF80D309DF80E209DF881
:1023AC000F1000952046B047D6E790F845209DF8D1
:1023BC000F309A42D0D890F846209342CCD290F865
:1023CC00483090F847200DF10D010DF10E00FFF78C
:1023DC0071FF0028DDD1BFE790F8473093420BD84E
:1023EC0090F84830934207D990F845308B4203D887
:1023FC0090F846308B4200D8704700B583B000236C
:10240C0000930123FFF784FF03B05DF804FB8A42BD
:10241C0005D283420BD89A420BD9012070478342D4
:10242C0009D99A4201D80020704701207047012039
:10243C007047002070470020704770B504460D4669
:10244C001E469DF8103090F8481090F84700FFF7A2
:10245C00DEFF034640B133462A4694F8461094F802
:10246C004500FFF7D4FF0346184670BDF0B59DF844
:10247C0014E002F007050124AC40E4B290F8867039
:10248C00012F19D90026012F18D002F0F802076885
:10249C0097F810C0876B02FB0C12B918BEF1000F35
:1024AC0016D10A783243D2B2624001F8012B013BBB
:1024BC0013F0FF03F5D1F0BD2646E4E70024E4E772
:1024CC00012617E07600F6B26400E4B2002BF2D0DD
:1024DC000A783243D2B262400A706A1C013BDBB20A
:1024EC0012F00705EED190F83E20114490F88620AA
:1024FC00012AE5D9012AE9D00124E7E770B4016883
:10250C0090F83C30DA0080F83F200A7C1F2A00D972
:10251C001F22D20080F83E2090F83D50EA00D2B243
:10252C0080F840205E194C7CA64201DD631BDBB2B7
:10253C00DB00DBB280F84120134480F84230F023FA
:10254C0080F843308B8AF02B01D880F84330CB8A4B
:10255C0080F8443070BC704708B5FFF7CFFF08BD5A
:10256C0030B583B0044690F84A3090F84B2090F880
:10257C00491090F84C500095FFF75FFF18B30123FA
:10258C0084F8803094F8452094F849309A4201D26E
:10259C0084F8453094F8462094F84A309A4201D990
:1025AC0084F8463094F8472094F84B309A4201D284
:1025BC0084F8473094F8482094F84C309A4205D966
:1025CC0084F8483002E0002384F8803003B030BD3A
:1025DC0008B5002380F8453090F8432080F8462059
:1025EC0080F8473090F8443090F84220934202D360
:1025FC009A1A80F8472090F841209B1A80F84830AE
:10260C00FFF7AEFF08BD30B583B09DF8185090F8B9
:10261C004440A21AD2B290F84340611AC9B235B103
:10262C00012D08D10139C9B2D21AD2B203E0013A54
:10263C00D2B2C91AC9B20095FFF75DFE03B030BD26
:10264C0008B5002280F8492080F84B20FF2280F842
:10265C004A2080F84C20436B5B68984708BD70B5E6
:10266C000446049E002505650363816380F83C20C5
:10267C0080F83D5080F8635080F88550012380F835
:10268C00863080F887304663336898472046FFF7DA
:10269C00D7FF2046FFF7FAFD84F8665070BD19B1DC
:1026AC000A2904D088B270474FF6FF7070474FF676
:1026BC00FF707047002380F82730704710B504690D
:1026CC0000230A462021A04710BD10B5046913460B
:1026DC000A461721A04710BD00B583B002AA02F824
:1026EC00011D0121FFF7F1FF03B05DF804FB10B5EC
:1026FC00C46800230A461521A04710BD10B5C46854
:10270C0013460A461721A04710BD10B5C468002314
:10271C001A461821A04710BD10B5C46800231A46EC
:10272C001921A04710BD70B582B006460D462C4647
:10273C0014F8011B172918D00CD919291FD9FE29F7
:10274C0024D122788DF807202921304600F02AF96F
:10275C000235ECE7152919D322788DF80720F46897
:10276C0000233046A0470235E1E76B7802AA02F855
:10277C00013D01213046FFF7C1FF0235D7E7F5686F
:10278C0000231A463046A8472546D0E702B070BD54
:10279C002DE9F04104460D4616469846A1F1140366
:1027AC00052B21D8DFE803F018030C1518180021AD
:1027BC00FFF784FF31462046FFF78EFF012011E022
:1027CC000021FFF77BFF31462046FFF785FF0120F4
:1027DC0008E00121FFF772FF27694346324629467C
:1027EC002046B847BDE8F0810020FBE72DE9F04119
:1027FC00074615461E460939062966D8DFE801F05A
:10280C00040A1265651D2E00314900F069F801209B
:10281C00BDE8F08100F069F82E493846FFF783FFD8
:10282C000120F5E722B92C49FFF77DFF0120EFE7E6
:10283C002A49FFF778FF0120EAE7FFF766FF21211D
:10284C003846FFF754FF690841F080013846FFF71E
:10285C004EFF3846FFF760FF0120D9E7FFF755FF21
:10286C007379DB00DBB297F822401C44E4B22021E0
:10287C003846FFF73CFF44F080013846FFF737FF3E
:10288C00B17941F040013846FFF731FFD6F80080AE
:10289C003679F600F6B20AE0424631463846FFF782
:1028AC002DFF3444E4B2013D15F0FF0508D0331977
:1028BC00542BF1D9532C03D8C4F15406F6B2EBE7E0
:1028CC003846FFF729FF0120A2E70020A0E700BF50
:1028DC0024450008FC440008104500081845000871
:1028EC0001608B7C80F82230704738B5044645690E
:1028FC0000231A462821A847E56800231A4614210C
:10290C002046A84701224B21204600F04BF82368B3
:10291C001A792921204600F045F800224B21204647
:10292C0000F040F823681A792921204600F03AF883
:10293C0001224B21204600F035F823685A792921D1
:10294C00204600F02FF838BD10B582B08DF8051078
:10295C008DF806208DF8043002AB049A43F8082D4C
:10296C00846801220F21A04702B010BD10B5846805
:10297C0000231A460921A04710BD10B58468002316
:10298C001A460A21A04710BD10B5846800230A46D8
:10299C000B21A04710BD10B5846800231A461021E6
:1029AC00A04710BD10B544690023A04710BD0020FE
:1029BC007047000000230360084A8260C260026115
:1029CC00426180F8233080F8263080F82730FF23CE
:1029DC0080F8243080F82930704700BFBB290008EC
:1029EC00F8B504460F4616461D46FFF7E3FFA760F1
:1029FC00E6602561069B63612046FFF7B7FFF8BDD3
:102A0C00FFF71AF80B480C490C4A002302E0D45883
:102A1C00C4500433C4188C42F9D3094A094C00231E
:102A2C0001E013600432A242FBD300F00FF8FDF773
:102A3C00B9FC7047000000200C0000204445000841
:102A4C000C000020C4010020FEE7000070B500253A
:102A5C000C4E0D4CA41BA410A54209D100F022F879
:102A6C0000250A4E0A4CA41BA410A54205D170BD2A
:102A7C0056F8253098470135EEE756F8253098473B
:102A8C000135F2E73C4500083C4500083C45000890
:102A9C004045000803460244934200D1704703F8B6
:102AAC00011BF9E7F8B500BFF8BC08BC9E4670479F
:0C2ABC00F8B500BFF8BC08BC9E4670478F
:102AC80048656C6C6F20576F726C642100000000C1
:102AD80055384732205E5E000203040506070809E0
:102AE8000A0B0C0D0E0F1010010200000000000070
:102AF80000000000010203040607080900000000A6
:102B080001020304BE00030304040304050D13FEBD
:102B1800FB08FE08FE0176034509B9200500CC092B
:102B2800210882C4894B8C002208336D8B884A00A7
:102B380023128744BC483012324582919029128C66
:102B4800C4002410A53CAB58252209314524915ACC
:102B5800080025198AC41D914C2289491225292269
:102B68004944128C486221492C2601261188C42C1C
:102B7800A92428894A233291126522012706316D3A
:102B88008A01280CA4B4BA504822D2260B06290C74
:102B9800A4B48A604C498B280D002A0B555CAB9471
:102BA8009449A610002B0A554CAB60A8140C012CB4
:102BB8000842B4098A04002D06135C8A012E0622F5
:102BC800C409022F0C84C4BAA45828168AC5003038
:102BD8000B85449B89842F920900310984451BC9C0
:102BE800482F04320D85449B89842213896287010A
:102BF800330E85449B898422125228920900340C92
:102C08008544AB95882432BA8906350C85448B8374
:102C180024C842914C00360D85449B89844691B066
:102C2800482600370B84448B432C140B6901380E5B
:102C380085449B898422994858241300390D85447A
:102C48009B89844542A34826003A0752C4091201C9
:102C58003B0872B4091245023C0856CC4B91B202AB
:102C68003D0735548B6A013E0956CC0BB1922200C0
:102C78003F0D85449B899A481407C944004014A90C
:102C88003CBDA14C148D8428FA49228A43E42012C1
:102C98000041108943CC38603C0D0943B25350328F
:102CA80022421087440C938A48525211494487089B
:102CB80000430E8744AC491A71AA180986280044B3
:102CC8001288C40C9B2C2493C82432894C228B98DC
:102CD80000450F86C40B8B28220991242151447486
:102CE800461086C40B8B28228A484224494846024B
:102CF800470F8744AC491A712AAA4962A249004879
:102D08001189440D0A452692894E32914C249330FC
:102D1800490984C40A8A482F044A0C86C42B9A504D
:102D280045979068044B1189C40C925A4C149444EA
:102D38008B22990A69004C0B86C40B9A50A788E825
:102D4800004D198B440E1A65368A4822A28824221F
:102D58008A4822A29052486522214E1488C40CD970
:102D680044161A8528A10829348A496611004F0D8E
:102D78008744AC598A8C9B24161B01500F87440C3E
:102D8800938A48229294A4421A005114983CAC6148
:102D98002C2493C824320945241152A21200520D42
:102DA80088C40C9B48A7584DA48532530C86C49BF5
:102DB800255AB1469A4C00540C86C48B8B96905079
:102DC8001B0500551388C40CCA4416928564215902
:102DD800481692C54800561288C40CCA441692C5B3
:102DE800244149501215CB0057198B440E8A64228E
:102DF800128594429288242489486293A14C28130E
:102E080001581188C40CCA44169A04C7C3C8282696
:102E18009910591088C40CCA441693042551B12A34
:102E280009005A0A86C48B9B6CB44D765B08A334A0
:102E38008A8A7E195C0C84C48A5830168C05630112
:102E48005D08A3348A897E295E0B6554AB606C14D7
:102E58004993055F0616340B03600723740A910033
:102E6800610854C48A998462620D86C40BA116C98C
:102E780084449A4C00630B55449B8968268A4C000D
:102E8800640B86C4BBA1CA8965A200650955449B29
:102E980089E42024660D85C4AA89242222C994289D
:102EA80000670C8634CBD048A26966BB00680B86E5
:102EB800C40BA116C984C424690A84C41A9174A4D1
:102EC80085006A0AA3B41AB5892E14006B0C8644CF
:102ED8000BA11609892451196C0884C48A91BE1063
:102EE8006D0E5AC40D8948B24212914424056E0AE7
:102EF80056C40B89644262126F0A56C41B8A8849F9
:102F08004201700D76B40B896442225D84330071EE
:102F18000F77B49B8A482292484612A990007209FA
:102F280054C40AC9490900730854C49A12A90274FE
:102F38000973449A88A4A224750956C40B11978969
:102F480002760C56C48B894A4812138A00770F59A7
:102F5800448D892E21892426114A4400780B56C4B1
:102F68008B894A4C165119790E76B48B894A4812C6
:102F7800138A6642007A0955440B8B48C9007B0BBB
:102F8800A4B42A89484526D2267C0781468B43006B
:102F98007D0CA4B40A99484D22D222027E0826DC70
:102FA8009B896402A00500CC09A10882B4095AE4EF
:102FB80000A20E753CCB882522894C22A31800A3B9
:102FC8000F87442C922824B4096592CB0400A40FDF
:102FD800574C8CC824A224114924914900A5108873
:102FE800C40CCA44169304254269514A02A60781B3
:102FF800468B0901A70EA4B41AD24C12A14464232B
:103008000A00A80823748A882400A91388C42C5AA3
:1030180030129A484211495034498C9100AA0863E9
:10302800540A592536AB0B56C4AB1409452411254F
:10303800AC0735548B6202AD06135C8A01AE148866
:10304800C42C5A3012A1484211C948129124C648CA
:1030580000AF0614F40A02B00943649A14490A003E
:10306800B109554CAB50290E28B20843E49949CA16
:1030780000B30843E489496C02B40723741A0A00B0
:10308800B50A76B40B11170B5108B61187449CC3C7
:103098002442094D82916024188915B70622DC095B
:1030A80002B80732358AD000B90843E49988283233
:1030B800BA0A64D41A4948149112BB0E56C48B50EC
:1030C8004822925024A11000BC1388C49C584896EA
:1030D800149B8443C1882C428A4500BD1288C49C35
:1030E800584896149B8443B248522C6900BE1388F2
:1030F800C48C512C3112138543C1882C428A450057
:10310800BF0D85342B991C145293482600C014B95E
:10311800432C39448E16078CA7216148760A4A4603
:1031280004C113B9435CB11C290E184F43C290EC7B
:1031380014948C08C214B943BCA9448E12078CA7F6
:10314800216148760A4A4604C315B9433C493022EE
:10315800478A03C6D39030243B05252302C415B9FA
:1031680043BC483812478A03C6D39030243B052510
:103178002302C515B9433C71282C87C401E369486B
:1031880018929D82921101C6168AC4AD432C228AD8
:103198004524B110AD128A89223111C500C710A784
:1031A80034AC491A71AA18098688511900C812B690
:1031B800C41BA91C62114524219224248A880EC9A3
:1031C80011B6C43B75884514918448929028223AD8
:1031D800CA12B6C4AB91446C114524219224248AA6
:1031E800880ECB14B6C4AB482C1207584411498832
:1031F80024098922A203CC0BB4C40A999422D20BC5
:1032080001CD0BB4C42A899422D20B01CE0CB5C4CB
:103218009A892A49A6270A00CF0AB4C49A1C2922E7
:10322800BD10D01188C40C9B2C24334964129944D6
:10323800163101D118B8C43C492C2287C926B2D00E
:103248002844094548A1514C328B00D210B7442C70
:10325800B11C384B917193C4622300D310B7443C1E
:10326800A11C3A4B917193C4622300D411B744ACAA
:1032780099440E9BA5C8B84962B11100D512B7444C
:103288002C49282207CE5264DC24B1D80800D61273
:10329800B744AC48301207CE5264DC24B1D80800D9
:1032A800D70A554C0B8964169B28D8128744AC4919
:1032B8005A445489502225492C121901D916B8C4E8
:1032C8002C39400EA44C6421594816928564215922
:1032D8008C04DA16B8C44CA91C4899C842B2902C80
:1032E800240BC942B2180900DB16B8C4BCA1440EAD
:1032F800A24C642159481692856421598C04DC1724
:10330800B8C4BC483412875126B2902C240BC94249
:10331800B2902C4602DD12B8C44CA91C4899C86268
:1033280092A0242A562501DE0F87448C694945243A
:1033380011494A421A00DF1087442C928A48A2A4F5
:103348002292882A1200E00A84C40A997426A118D5
:10335800E10A84C42A897426A118E20E95C4AAD861
:103368004475289A44241400E30C85C41ACD43D12B
:103378002422A100E40A84C48A48D6998462E50C10
:1033880084C41A49282299492806E60E58C48CC9CB
:103398002424911C24B20901E70D75349B89682601
:1033A8008ACC622200E80C85441BA11C30911C8445
:1033B80004E90B85442B75C844721012EA0C954435
:1033C800ABD8447922390809EB0D85449BA4481CE5
:1033D80030911C8404EC0A84C40A9974A48500ED15
:1033E8000A84C42A8974A48500EE0B95C4AAD8441B
:1033F80075A68902EF0A84C48A48D6911602F00E8F
:1034080086C40B516894461131492800F10D86C4D1
:103418001B498A1CA232213109F20D86C41BA91C42
:10342800441131492800F30C86C43B751045C42467
:10343800A100F40F96C4ABE048228750444C120A0E
:1034480000F50E86C42B498A1C421131492800F622
:103458000E86C49BB4481C441131492800F70A550C
:103468004CAB38A00E0801F80D76BCDB084562218C
:1034780049285100F90B86C41BA91C22E23251FAD3
:103488000B86C43B758888CB4401FB0D96C4ABE022
:1034980048220788B84C14FC0C86C49BB4481C22EC
:1034A800E23251FD10A6B43B75C84425248909456C
:1034B800332100FE0EA6B40BA116C98444BA0867CE
:1034C80000FF11A6B49BB4481C325109496242D18D
:1034D8004C08000000080164065AFFFF010013A908
:1034E800433C3A4A1C309E868421D9292819110167
:1034F800010A74C40AE24C4231010215B943BC50B6
:10350800588E14078CA7216148760A4A460401039D
:103518000C84C48A50443A93500C010415A933CC46
:1035280038603C0D0943B2535032A9C5214200010D
:10353800050C74B48A998462894900010611B7445C
:103548004C75E0248D38558C0443140001070E8512
:10355800442B75C8443413452600010812B744ACFF
:1035680099440E9BA411A78A9160880201090E85CF
:10357800449B89F2443413452600010A12B744BC1F
:10358800701C3A49234E1523C1100500010B0F8505
:1035980044AB601C3211CD44910900010C12B744B0
:1035A8001CB5397092469C2A4682210A00010D10EA
:1035B80085440B89640E988866A2C80400010E161B
:1035C800B8C41CC539D0260BC92432894C2293C8EB
:1035D800222600010F158944BD89502214452A115D
:1035E800914C24930C25320001101288C40C9B2C9A
:1035F8002433496412994416310101110C86C4BB65
:10360800A18872629928011212A6C41B3AC0228AA4
:10361800484224494814111D01130B75441BF244F8
:10362800721012011414B6C49B504C0EB188229229
:103638001049121245440701150E85449B50480E47
:1036480098480E4202011613B6C4BB681C621145A5
:1036580024219224248A880E01170D8544AB601C0E
:1036680032911C8404011813A6B40B8B28220991EB
:1036780024215144748A8A0001190D75349B89E408
:1036880020A4044500011A13B6C41BA539C0228A18
:10369800484224494814111D011B0E85440B8964B6
:1036A8000E98480E4202011C13B744AC99440E9B75
:1036B800A411A7A29A24269A04011D11B6349B913D
:1036C800440E0C8D249A66B60B00011E12B744AC4A
:1036D80044397092469C8A6A92986812011F11B602
:1036E800349B504C0E0D8D249A66B60B00012012A7
:1036F800B744BC701C3A49234E4535494C3409013E
:103708002110B634AB681C1C1A4934CD6C17000163
:103718002215D71CAC491A712AAA4962A2491C264B
:1037280015476300012312D634BB605428878646A8
:10373800124D33DB0500012416B944BDA9440EA47B
:1037480050642299E82413C944320903012513B7A8
:10375800C39B99440E936A114D9424228948000111
:10376800261289440D0A452639484E32914C249335
:103778003001270E86C40BA19024914C484C0201BD
:10378800280CB5C41ACD24999E280001290B85C49C
:103798001ACD334D1400012A0BA4C40A2245A417DC
:1037A80002012B0A74C40AE2480B01012C0DB4C4AF
:1037B8008A50444A11E98500012D0B84C48A50447B
:1037C8003AD242012E0DA4B40A8A482F94980400D4
:1037D800012F0DA4B41A9174A48512930001300C22
:1037E800B4C4AA589422D20B0101310954C48A9155
:1037F80016020132168B440E1A452A928AA4221503
:10380800918A481492904600013315A8341D9944B2
:1038180026878C2632894C223389A512000134115F
:10382800B6C4AB91440EA109557409894600013507
:103838000CA5B39A89F24C4F2200013619D99C0C79
:10384800925A4C1494448B22990A690E9503E49079
:1038580038200A013713D61C0BA11609892451995F
:103868004384D2600C0001380C56440B898444927E
:10387800A80C01390EB6C42B991C4413EA14111D67
:10388800013A0BB4C42A8974A42F04013B11D69CB5
:103898000B9A50A788E80E114A833100013C0ED4D8
:1038A8009C8A91BE5045B2500800013D1489440DD0
:1038B8009A44289146842139401414C56C00013E6D
:1038C8001187448C91442491454421A9220D00017B
:1038D8003F1389440DB21C20070825428928288AED
:1038E800D90001400E87448CA92689482215D200A8
:1038F80001410E86C40B9A50381A8A22A20301424B
:103908000C84C48A91682219A910014317B8C44CC1
:10391800A91C289BC842A310251421854631C92C0F
:103928000201440C86C43B7588CA84C42401451A24
:10393800D89C0CD944161A8528A10829348A4966C6
:1039480071A8580E080701014611A69C0B8964420C
:1039580062924384D2600C00014718B8C41CC53970
:103968005036918546214A28420A8D6292590400B0
:1039780001480E86C40B89680E5199909804014934
:103988001589440D39400E89034212E14426928973
:10399800642201014A17A8B40CD944161A8528A133
:1039A8000829348A494662A90800014B0E76B40BEF
:1039B8008964426212CA2400014C10A7442C3A6C54
:1039C8009622E32689C54600014D0D76C41B3A842C
:1039D8002262925000014E11B744AC4439709622CD
:1039E800E32689C54600014F0F86C49B504C0EA2A2
:1039F8008898241400015012B7441C11490E9BA545
:103A0800C8B84962B1110001511187C41B11490E90
:103A180022A98824221109000152178AC4AD43241F
:103A2800269A4922328A4C129189223151E8100192
:103A3800530D59441D8A928474125206015411B8C8
:103A4800C44CA91C6813E914AB89B4500601550B82
:103A580084C42A8954725202015615D89C0C9B487A
:103A6800A7584DA48532078AE58070100001570DCC
:103A7800A49C0AC94959240BC500015811B8C41C93
:103A8800C539D026D229561369A10C01590F85C30F
:103A98000A89640E904428322500015A10B6C43BA6
:103AA80075D064442BD648930900015B0B84C42A63
:103AB80089B844AA00015C11B6C49B91440E59A26E
:103AC800156BA4C90400015D0E85C39A893A60226A
:103AD800A3492600015E0FA6B49B255AB1469A0C4D
:103AE800832200015F0B74B49A12A9169200016038
:103AF80010B6C41BA539648956AC91261300016120
:103B08000F85C40A89640E98C86892110001620E74
:103B1800A6B48B8B9690501B31280201630C93340A
:103B28009A88A4A2248A0801640FB6C41BA539E0A8
:103B3800A22524D4460101650E86C44B49884689CE
:103B48000855650001660D86C48B8B96084DA846FE
:103B58000101670C74449A906822B2490001681800
:103B6800B8C43C492C22875126B2902C240BC94258
:103B7800B2902C460201690D86C42B498A1C20E2AA
:103B88003251016A16A8C42C3A8C329185642159A5
:103B98004816928564311200016B0C76C41B3A40BA
:103BA800C465A200016C17B8C4AC54399032918531
:103BB8006421594816928564311200016D0D86C43E
:103BC8009B504C0E11719928016E18C8C43C692885
:103BD8002A075226B2902C240BC942B2902C4602D6
:103BE800016F0E96C42B5928268788B84C1401708B
:103BF80018B8C42C15911C4499C842B2902C240BB7
:103C0800C942B218090001711387C41B11490E116A
:103C1800494412914432924800017217A8B40CCA60
:103C280044169285642159481692C58871801000FF
:103C380001730C76B40B119749292A0201741FBB32
:103C480044CE39402247A048262251482924894891
:103C5800429288243619CA843211000175138944A6
:103C6800BDA9440E9CE81292486212A14404017650
:103C780014B8C4ACA1440EA34C643149501215AB1E
:103C88009200017712A6B49B91440E98A88424311F
:103C9800A1682604017814B8C4ACC4501C4699C85D
:103CA8006292A0242A56250101790DB6C43B75C835
:103CB8004D36DA263B017A0B85442B758045A46482
:103CC800017B0EB6C4BB681C72938DB6C90E017C0D
:103CD8000C8544AB601C60112919017D0EB6C41B0C
:103CE800A539E0261B6D931D017E0C85440B896464
:103CF8006C11291901861087441C523012944A8786
:103D0800B448640401891288C40C9B2C2433496488
:103D1800129944163101018E1086C48B9324248A8B
:103D2800884811494862019210A6334B5924242B24
:103D380009354562420001970C84C40A8A48421139
:103D4800A910019A0B84C48A910A45A442019D15C1
:103D5800A8B40CD944161A8528A1082934D2169279
:103D68008A01019F108744AC598AEC40A34962B18B
:103D7800110001A0138944AC912416A14966139936
:103D880048264B1D0201A10C58C41B26936434A27B
:103D98000101A71086C48BC84434131D42B2916434
:103DA8001201A80954C48AD9213601AE0DA6B48BD4
:103DB8008B969050AF120001AF168AC40C4A451674
:103DC800510B456491902C280BCAA2440001B00DF8
:103DD80058C40B9193644292880001B50C86C48B39
:103DE8009B6C425A931D01B60955440B8BC80101BF
:103DF800BB0D85449B89847212C50E0301BC0D85D9
:103E0800448B8324C842914C0001C00881468B43EF
:103E18000001C20D8544AB605229540A860001C3D3
:103E28000982C4894B8C0001CD15B9432C89748E45
:103E380014078CA7216148760A4A460401CE0F85EB
:103E4800C40A89643C144D22120A0001CF0DB5C47E
:103E58000A89644C92E9890201D00C85C30A8964F5
:103E68000E98692201D111B7441CB539709622E326
:103E78002689C5460001D20E86C41BA53984226254
:103E880092500001D317B8C41CC53990329185648B
:103E98002159481692856431120001D40D86C41B3D
:103EA800A53940C465A20001D51AD8C42C3A3812E5
:103EB8008DC46194892C240BC942B2902C248B9117
:103EC8000001D60FA6C41B3A242D128788B84C14BB
:103ED80001D71BE8C44CA91C21128DC46194892CFC
:103EE800240BC942B2902C248B910001D810B6C47F
:103EF8003B755024168943445C260A01D91CE8C442
:103F08002C89700E8E4423711865220BC942B29019
:103F18002C240BC962240001DA12B6C40B89680E7E
:103F28008AC422718888CB440101DB1CE8C43C396F
:103F3800400E8E4423711865220BC942B2902C247E
:103F48000BC962240001DC11B6C41BA91C148945E5
:103F5800E2101197890201DD0B55440BE2412299C9
:103F68000001DE18D9433C3A42241C8923C501E3E9
:103F7800694818929D8292110101DF0CA4C40A625B
:103F880024EB4C423101E017D9433C3A4A1C124712
:103F98008B03C6D39030243B0525230201E10CA4F2
:103FA800C40A722C3A93500C01E218AAC44D3AC2C2
:103FB800211611C5229258885609C54491988862DD
:103FC80001E31078C42C3A6C3209492407896C4201
:103FD80001E4108744AC491A712AAA4922A449006D
:103FE80001E50D8634CBD048A26974BB0001E61206
:103FF800B7441CB5397092469C8A6A929868120137
:10400800E711B6340B89680E0D8D249A66B60B003D
:1040180001E814B9C41CD53998A416130525D1A2F2
:1040280048A6421A01E912B7430B896C0E946A112B
:10403800D1681291640001EA10A734AC598A8C9BAC
:1040480024161B86650001EB0D76B41B8A8849424D
:104058008B8A0001EC12C7342C3A6C9622E326892D
:10406800C58661190001ED0F96B41B3A842262924D
:10407800D0A2220001F00DA5B30A89640E98E9497F
:104088000401F412B7444C75E0248D3815D5243159
:10409800D1240001F50FB6343B75686824D134B3D8
:1040A8005D0001F818B8C42C39400E944D64A15134
:1040B80088128A9042A39864160101F90D86C41BE0
:1040C800A91CA23221310901FA18E9434CB11C4953
:1040D8001C0ACB2171C0781A128664A7A064440117
:1040E800FB0FB4C42A8958128A4866128A0101FC57
:1040F8001ABAC46D39408E72884544B1882416A214
:10410800554231512426A21801FD1188C44CA91C1E
:1041180038998424928344362101FE15B7444C759E
:10412800E0242D22AA442891922416898C0001FFAC
:1041380010A6BC3B75708422B1902494280002001C
:1041480016B9431C915024478803C6D39030243BAA
:104158000525230202010F87C20A9176D058388BB1
:10416800C82800020215B9434C71288E12078CA783
:10417800216148760A4A460402030C84C41A492875
:104188003893500C020414B7C30B917688491492E3
:10419800C468929828248A1802050F87430B9176E1
:1041A800D04C222A892900020614B6C42B59280E9D
:1041B800B08822921049121245440702070C854420
:1041C8002B51F24472101202080EB7C20A917610EF
:1041D80051AA470A0002090D87C20A9176D05423D2
:1041E8000500020A0DB4C41A49284811E9850002DD
:1041F8000B0B84C41A492838D242020C11B7440C5C
:104208009176D02C45C64D128B8D00020D1087C3B8
:104218000B91761049452411892800020E12B744E3
:104228003C61280E9BA5C8B84962B11100020F0F66
:1042380086C42B59280EA18898241400021013B89C
:10424800C40C914C2407D9443AC56A222D94010222
:10425800110E87C20A917690244693AA010212127F
:10426800B8C43C69280EB389748AD5445A28030215
:10427800130C84C41A492828392901021418B8C40F
:104288000C914C24075126B2902C240BC942B290B1
:104298002C460202151287C30B9176884822928811
:1042A8002492914400021617B8C43C69280EA34C06
:1042B800642159481692856421598C0402170D8689
:1042C800C42B59280E10719928021811D69C9B25C9
:1042D8005AB1469ACC414269300602190DA49C9AFB
:1042E80012A92C92854200021A11D69C8B8B9690AB
:1042F800501B1D2494066300021B0FC31C9A88A43C
:10430800A2249488221100021E16B9442D89740E25
:10431800A550642299E82413C944320903021F13E3
:10432800B7C30B896C0E946A114D942422894800F6
:10433800022615B943CC38248E16078CA72161486C
:10434800760A4A460402270B84C4AA587426A11880
:10435800022813A6B40B8B282209912421514474F6
:104368000B8A0002290D75349B89E420A4C524001A
:10437800022A14D7442C3A2C128CC481B31419374E
:10438800492C3602022B11A6C41B3A242D120751C0
:10439800444C120A00022C14D7442C3A4C128AC8F6
:1043A80081B3141937492C3602022D11A6C41B3AC1
:1043B8004892228750444C120A00022E11B744BC7E
:1043C800701C3A4B917193C4622300022F0E86C46D
:1043D800BB681C441131492800023013D7442C3AD9
:1043E800301C87CE5264DC24B1D80800023110A6F4
:1043F800C41B3A2C1A0751444C120A00023212A864
:10440800C42C3A8C3291C524414954AC4A02023337
:104418001196B41B3A60A21292C484A299100002A9
:10442800500954C40A0B453602540C55449B49485C
:1044380036924C0002580A55449B89E46601025999
:104448000B55440BE241229900025F0E85AC1A928B
:104458004C89248948460002650B86AC0B11978964
:10446800A20602750C56C41B8AE8309250000279E5
:104478000954C42AA58B0002870C73440A9144523C
:1044880091440002880B93349A88A4A2930002896D
:104498000B56C40B11E9309928028C0C56C42BA179
:1044A8002C228AA80C028D0E59442D8950228B2863
:1044B800457419028E0E76C44BD948288B88222A57
:1044C80003029E0B862C8B892616450D02BB0842DB
:1044D800E419090102BC0942E4098A040002BD0882
:1044E80042E489520000000065250008DD25000827
:1044F800132600081815211506151315C0152015C3
:1045080008152419FF000000181520150C19FF00C4
:104518001815201508152419FF00000000010505CD
:1045280002020C4B00093D0000041E280B06000087
:0445380054003000FB
:04453C003101000841
:044540000D01000861
:0C45440001000000100000000024F40042
:0400000508002A0DB8
:00000001FF
